{"contracts/PredictionMarket.sol":{"PredictionMarket":{"abi":[{"inputs":[],"stateMutability":"nonpayable","type":"constructor"},{"inputs":[],"name":"PredictionMarket__ElectionFinished","type":"error"},{"inputs":[],"name":"PredictionMarket__ElectionNotFinished","type":"error"},{"inputs":[],"name":"PredictionMarket__NoWinningBets","type":"error"},{"inputs":[],"name":"PredictionMarket__NotEnoughEthSent","type":"error"},{"inputs":[],"name":"PredictionMarket__TransferFailed","type":"error"},{"anonymous":false,"inputs":[{"indexed":true,"internalType":"address","name":"gambler","type":"address"},{"indexed":true,"internalType":"uint256","name":"bet","type":"uint256"}],"name":"BetPlaced","type":"event"},{"anonymous":false,"inputs":[{"indexed":true,"internalType":"address","name":"gambler","type":"address"},{"indexed":true,"internalType":"uint256","name":"gain","type":"uint256"}],"name":"GamblerPaid","type":"event"},{"inputs":[{"internalType":"enum PredictionMarket.Party","name":"","type":"uint8"}],"name":"bets","outputs":[{"internalType":"uint256","name":"","type":"uint256"}],"stateMutability":"view","type":"function"},{"inputs":[{"internalType":"address","name":"","type":"address"},{"internalType":"enum PredictionMarket.Party","name":"","type":"uint8"}],"name":"betsToGambler","outputs":[{"internalType":"uint256","name":"","type":"uint256"}],"stateMutability":"view","type":"function"},{"inputs":[],"name":"oracle","outputs":[{"internalType":"address","name":"","type":"address"}],"stateMutability":"view","type":"function"},{"inputs":[{"internalType":"enum PredictionMarket.Party","name":"_party","type":"uint8"}],"name":"placeBet","outputs":[],"stateMutability":"payable","type":"function"},{"inputs":[{"internalType":"enum PredictionMarket.Party","name":"_winner","type":"uint8"},{"internalType":"enum PredictionMarket.Party","name":"_loser","type":"uint8"}],"name":"reportResult","outputs":[],"stateMutability":"nonpayable","type":"function"},{"inputs":[],"name":"s_eventstate","outputs":[{"internalType":"enum PredictionMarket.EventState","name":"","type":"uint8"}],"stateMutability":"view","type":"function"},{"inputs":[],"name":"s_result","outputs":[{"internalType":"enum PredictionMarket.Party","name":"winner","type":"uint8"},{"internalType":"enum PredictionMarket.Party","name":"loser","type":"uint8"}],"stateMutability":"view","type":"function"},{"inputs":[],"name":"withdrawGain","outputs":[],"stateMutability":"nonpayable","type":"function"}],"devdoc":{"kind":"dev","methods":{},"version":1},"evm":{"bytecode":{"linkReferences":{},"object":"608060405234801561001057600080fd5b506000600360006101000a81548160ff0219169083600181111561003757610036610041565b5b0217905550610070565b7f4e487b7100000000000000000000000000000000000000000000000000000000600052602160045260246000fd5b610d4e8061007f6000396000f3fe60806040526004361061007b5760003560e01c80634ec942b71161004e5780634ec942b71461010a5780637dc0d1d0146101335780637e0ecc001461015e578063860b951b1461019b5761007b565b80632b539c8614610080578063430468441461009757806345a7c2b8146100b35780634a71079c146100de575b600080fd5b34801561008c57600080fd5b506100956101d8565b005b6100b160048036038101906100ac9190610967565b61059f565b005b3480156100bf57600080fd5b506100c8610767565b6040516100d59190610a63565b60405180910390f35b3480156100ea57600080fd5b506100f361077a565b604051610101929190610a7e565b60405180910390f35b34801561011657600080fd5b50610131600480360381019061012c9190610994565b6107a6565b005b34801561013f57600080fd5b5061014861089a565b6040516101559190610a48565b60405180910390f35b34801561016a57600080fd5b5061018560048036038101906101809190610967565b6108c0565b6040516101929190610aa7565b60405180910390f35b3480156101a757600080fd5b506101c260048036038101906101bd9190610927565b6108d8565b6040516101cf9190610aa7565b60405180910390f35b6000600260003373ffffffffffffffffffffffffffffffffffffffff1673ffffffffffffffffffffffffffffffffffffffff16815260200190815260200160002060008060000160009054906101000a900460ff16600181111561023f5761023e610c92565b5b600181111561025157610250610c92565b5b8152602001908152602001600020549050600081101561029d576040517f808cc40900000000000000000000000000000000000000000000000000000000815260040160405180910390fd5b6001808111156102b0576102af610c92565b5b600360009054906101000a900460ff1660018111156102d2576102d1610c92565b5b14610309576040517fe5c192a000000000000000000000000000000000000000000000000000000000815260040160405180910390fd5b6000600160008060000160009054906101000a900460ff16600181111561033357610332610c92565b5b600181111561034557610344610c92565b5b81526020019081526020016000205482600160008060000160019054906101000a900460ff16600181111561037d5761037c610c92565b5b600181111561038f5761038e610c92565b5b8152602001908152602001600020546103a89190610b54565b6103b29190610b23565b826103bd9190610acd565b90506000600260003373ffffffffffffffffffffffffffffffffffffffff1673ffffffffffffffffffffffffffffffffffffffff168152602001908152602001600020600080600181111561041557610414610c92565b5b600181111561042757610426610c92565b5b8152602001908152602001600020819055506000600260003373ffffffffffffffffffffffffffffffffffffffff1673ffffffffffffffffffffffffffffffffffffffff168152602001908152602001600020600060018081111561048f5761048e610c92565b5b60018111156104a1576104a0610c92565b5b81526020019081526020016000208190555060003373ffffffffffffffffffffffffffffffffffffffff16826040516104d990610a33565b60006040518083038185875af1925050503d8060008114610516576040519150601f19603f3d011682016040523d82523d6000602084013e61051b565b606091505b5050905080610556576040517f6ef66bc400000000000000000000000000000000000000000000000000000000815260040160405180910390fd5b813373ffffffffffffffffffffffffffffffffffffffff167f8afa837e1dad3d228f7dbcc42018b9c8b7efff9b88d3d63035963edfc75cb54660405160405180910390a3505050565b600060018111156105b3576105b2610c92565b5b600360009054906101000a900460ff1660018111156105d5576105d4610c92565b5b1461060c576040517ff961d63000000000000000000000000000000000000000000000000000000000815260040160405180910390fd5b6000341415610647576040517f18fd7ed900000000000000000000000000000000000000000000000000000000815260040160405180910390fd5b346001600083600181111561065f5761065e610c92565b5b600181111561067157610670610c92565b5b8152602001908152602001600020600082825461068e9190610acd565b9250508190555034600260003373ffffffffffffffffffffffffffffffffffffffff1673ffffffffffffffffffffffffffffffffffffffff16815260200190815260200160002060008360018111156106ea576106e9610c92565b5b60018111156106fc576106fb610c92565b5b815260200190815260200160002060008282546107199190610acd565b92505081905550343373ffffffffffffffffffffffffffffffffffffffff167f43e08d78302cdf9c94e1ffd293c2a3696139ee41cf3199b6f5eed9c7f6cc609060405160405180910390a350565b600360009054906101000a900460ff1681565b60008060000160009054906101000a900460ff16908060000160019054906101000a900460ff16905082565b600060018111156107ba576107b9610c92565b5b600360009054906101000a900460ff1660018111156107dc576107db610c92565b5b14610813576040517ff961d63000000000000000000000000000000000000000000000000000000000815260040160405180910390fd5b816000800160006101000a81548160ff0219169083600181111561083a57610839610c92565b5b0217905550806000800160016101000a81548160ff0219169083600181111561086657610865610c92565b5b02179055506001600360006101000a81548160ff0219169083600181111561089157610890610c92565b5b02179055505050565b600360019054906101000a900473ffffffffffffffffffffffffffffffffffffffff1681565b60016020528060005260406000206000915090505481565b6002602052816000526040600020602052806000526040600020600091509150505481565b60008135905061090c81610cf1565b92915050565b60008135905061092181610d08565b92915050565b6000806040838503121561093e5761093d610cc1565b5b600061094c858286016108fd565b925050602061095d85828601610912565b9150509250929050565b60006020828403121561097d5761097c610cc1565b5b600061098b84828501610912565b91505092915050565b600080604083850312156109ab576109aa610cc1565b5b60006109b985828601610912565b92505060206109ca85828601610912565b9150509250929050565b6109dd81610bae565b82525050565b6109ec81610c10565b82525050565b6109fb81610c22565b82525050565b6000610a0e600083610ac2565b9150610a1982610cc6565b600082019050919050565b610a2d81610c06565b82525050565b6000610a3e82610a01565b9150819050919050565b6000602082019050610a5d60008301846109d4565b92915050565b6000602082019050610a7860008301846109e3565b92915050565b6000604082019050610a9360008301856109f2565b610aa060208301846109f2565b9392505050565b6000602082019050610abc6000830184610a24565b92915050565b600081905092915050565b6000610ad882610c06565b9150610ae383610c06565b9250827fffffffffffffffffffffffffffffffffffffffffffffffffffffffffffffffff03821115610b1857610b17610c34565b5b828201905092915050565b6000610b2e82610c06565b9150610b3983610c06565b925082610b4957610b48610c63565b5b828204905092915050565b6000610b5f82610c06565b9150610b6a83610c06565b9250817fffffffffffffffffffffffffffffffffffffffffffffffffffffffffffffffff0483118215151615610ba357610ba2610c34565b5b828202905092915050565b6000610bb982610be6565b9050919050565b6000819050610bce82610cc9565b919050565b6000819050610be182610cdd565b919050565b600073ffffffffffffffffffffffffffffffffffffffff82169050919050565b6000819050919050565b6000610c1b82610bc0565b9050919050565b6000610c2d82610bd3565b9050919050565b7f4e487b7100000000000000000000000000000000000000000000000000000000600052601160045260246000fd5b7f4e487b7100000000000000000000000000000000000000000000000000000000600052601260045260246000fd5b7f4e487b7100000000000000000000000000000000000000000000000000000000600052602160045260246000fd5b600080fd5b50565b60028110610cda57610cd9610c92565b5b50565b60028110610cee57610ced610c92565b5b50565b610cfa81610bae565b8114610d0557600080fd5b50565b60028110610d1557600080fd5b5056fea2646970667358221220ce7fc4f4e58ef808e6391a9e3784516549e822e4983f4fa4cca1247114e7f97764736f6c63430008070033","opcodes":"PUSH1 0x80 PUSH1 0x40 MSTORE CALLVALUE DUP1 ISZERO PUSH2 0x10 JUMPI PUSH1 0x0 DUP1 REVERT JUMPDEST POP PUSH1 0x0 PUSH1 0x3 PUSH1 0x0 PUSH2 0x100 EXP DUP2 SLOAD DUP2 PUSH1 0xFF MUL NOT AND SWAP1 DUP4 PUSH1 0x1 DUP2 GT ISZERO PUSH2 0x37 JUMPI PUSH2 0x36 PUSH2 0x41 JUMP JUMPDEST JUMPDEST MUL OR SWAP1 SSTORE POP PUSH2 0x70 JUMP JUMPDEST PUSH32 0x4E487B7100000000000000000000000000000000000000000000000000000000 PUSH1 0x0 MSTORE PUSH1 0x21 PUSH1 0x4 MSTORE PUSH1 0x24 PUSH1 0x0 REVERT JUMPDEST PUSH2 0xD4E DUP1 PUSH2 0x7F PUSH1 0x0 CODECOPY PUSH1 0x0 RETURN INVALID PUSH1 0x80 PUSH1 0x40 MSTORE PUSH1 0x4 CALLDATASIZE LT PUSH2 0x7B JUMPI PUSH1 0x0 CALLDATALOAD PUSH1 0xE0 SHR DUP1 PUSH4 0x4EC942B7 GT PUSH2 0x4E JUMPI DUP1 PUSH4 0x4EC942B7 EQ PUSH2 0x10A JUMPI DUP1 PUSH4 0x7DC0D1D0 EQ PUSH2 0x133 JUMPI DUP1 PUSH4 0x7E0ECC00 EQ PUSH2 0x15E JUMPI DUP1 PUSH4 0x860B951B EQ PUSH2 0x19B JUMPI PUSH2 0x7B JUMP JUMPDEST DUP1 PUSH4 0x2B539C86 EQ PUSH2 0x80 JUMPI DUP1 PUSH4 0x43046844 EQ PUSH2 0x97 JUMPI DUP1 PUSH4 0x45A7C2B8 EQ PUSH2 0xB3 JUMPI DUP1 PUSH4 0x4A71079C EQ PUSH2 0xDE JUMPI JUMPDEST PUSH1 0x0 DUP1 REVERT JUMPDEST CALLVALUE DUP1 ISZERO PUSH2 0x8C JUMPI PUSH1 0x0 DUP1 REVERT JUMPDEST POP PUSH2 0x95 PUSH2 0x1D8 JUMP JUMPDEST STOP JUMPDEST PUSH2 0xB1 PUSH1 0x4 DUP1 CALLDATASIZE SUB DUP2 ADD SWAP1 PUSH2 0xAC SWAP2 SWAP1 PUSH2 0x967 JUMP JUMPDEST PUSH2 0x59F JUMP JUMPDEST STOP JUMPDEST CALLVALUE DUP1 ISZERO PUSH2 0xBF JUMPI PUSH1 0x0 DUP1 REVERT JUMPDEST POP PUSH2 0xC8 PUSH2 0x767 JUMP JUMPDEST PUSH1 0x40 MLOAD PUSH2 0xD5 SWAP2 SWAP1 PUSH2 0xA63 JUMP JUMPDEST PUSH1 0x40 MLOAD DUP1 SWAP2 SUB SWAP1 RETURN JUMPDEST CALLVALUE DUP1 ISZERO PUSH2 0xEA JUMPI PUSH1 0x0 DUP1 REVERT JUMPDEST POP PUSH2 0xF3 PUSH2 0x77A JUMP JUMPDEST PUSH1 0x40 MLOAD PUSH2 0x101 SWAP3 SWAP2 SWAP1 PUSH2 0xA7E JUMP JUMPDEST PUSH1 0x40 MLOAD DUP1 SWAP2 SUB SWAP1 RETURN JUMPDEST CALLVALUE DUP1 ISZERO PUSH2 0x116 JUMPI PUSH1 0x0 DUP1 REVERT JUMPDEST POP PUSH2 0x131 PUSH1 0x4 DUP1 CALLDATASIZE SUB DUP2 ADD SWAP1 PUSH2 0x12C SWAP2 SWAP1 PUSH2 0x994 JUMP JUMPDEST PUSH2 0x7A6 JUMP JUMPDEST STOP JUMPDEST CALLVALUE DUP1 ISZERO PUSH2 0x13F JUMPI PUSH1 0x0 DUP1 REVERT JUMPDEST POP PUSH2 0x148 PUSH2 0x89A JUMP JUMPDEST PUSH1 0x40 MLOAD PUSH2 0x155 SWAP2 SWAP1 PUSH2 0xA48 JUMP JUMPDEST PUSH1 0x40 MLOAD DUP1 SWAP2 SUB SWAP1 RETURN JUMPDEST CALLVALUE DUP1 ISZERO PUSH2 0x16A JUMPI PUSH1 0x0 DUP1 REVERT JUMPDEST POP PUSH2 0x185 PUSH1 0x4 DUP1 CALLDATASIZE SUB DUP2 ADD SWAP1 PUSH2 0x180 SWAP2 SWAP1 PUSH2 0x967 JUMP JUMPDEST PUSH2 0x8C0 JUMP JUMPDEST PUSH1 0x40 MLOAD PUSH2 0x192 SWAP2 SWAP1 PUSH2 0xAA7 JUMP JUMPDEST PUSH1 0x40 MLOAD DUP1 SWAP2 SUB SWAP1 RETURN JUMPDEST CALLVALUE DUP1 ISZERO PUSH2 0x1A7 JUMPI PUSH1 0x0 DUP1 REVERT JUMPDEST POP PUSH2 0x1C2 PUSH1 0x4 DUP1 CALLDATASIZE SUB DUP2 ADD SWAP1 PUSH2 0x1BD SWAP2 SWAP1 PUSH2 0x927 JUMP JUMPDEST PUSH2 0x8D8 JUMP JUMPDEST PUSH1 0x40 MLOAD PUSH2 0x1CF SWAP2 SWAP1 PUSH2 0xAA7 JUMP JUMPDEST PUSH1 0x40 MLOAD DUP1 SWAP2 SUB SWAP1 RETURN JUMPDEST PUSH1 0x0 PUSH1 0x2 PUSH1 0x0 CALLER PUSH20 0xFFFFFFFFFFFFFFFFFFFFFFFFFFFFFFFFFFFFFFFF AND PUSH20 0xFFFFFFFFFFFFFFFFFFFFFFFFFFFFFFFFFFFFFFFF AND DUP2 MSTORE PUSH1 0x20 ADD SWAP1 DUP2 MSTORE PUSH1 0x20 ADD PUSH1 0x0 KECCAK256 PUSH1 0x0 DUP1 PUSH1 0x0 ADD PUSH1 0x0 SWAP1 SLOAD SWAP1 PUSH2 0x100 EXP SWAP1 DIV PUSH1 0xFF AND PUSH1 0x1 DUP2 GT ISZERO PUSH2 0x23F JUMPI PUSH2 0x23E PUSH2 0xC92 JUMP JUMPDEST JUMPDEST PUSH1 0x1 DUP2 GT ISZERO PUSH2 0x251 JUMPI PUSH2 0x250 PUSH2 0xC92 JUMP JUMPDEST JUMPDEST DUP2 MSTORE PUSH1 0x20 ADD SWAP1 DUP2 MSTORE PUSH1 0x20 ADD PUSH1 0x0 KECCAK256 SLOAD SWAP1 POP PUSH1 0x0 DUP2 LT ISZERO PUSH2 0x29D JUMPI PUSH1 0x40 MLOAD PUSH32 0x808CC40900000000000000000000000000000000000000000000000000000000 DUP2 MSTORE PUSH1 0x4 ADD PUSH1 0x40 MLOAD DUP1 SWAP2 SUB SWAP1 REVERT JUMPDEST PUSH1 0x1 DUP1 DUP2 GT ISZERO PUSH2 0x2B0 JUMPI PUSH2 0x2AF PUSH2 0xC92 JUMP JUMPDEST JUMPDEST PUSH1 0x3 PUSH1 0x0 SWAP1 SLOAD SWAP1 PUSH2 0x100 EXP SWAP1 DIV PUSH1 0xFF AND PUSH1 0x1 DUP2 GT ISZERO PUSH2 0x2D2 JUMPI PUSH2 0x2D1 PUSH2 0xC92 JUMP JUMPDEST JUMPDEST EQ PUSH2 0x309 JUMPI PUSH1 0x40 MLOAD PUSH32 0xE5C192A000000000000000000000000000000000000000000000000000000000 DUP2 MSTORE PUSH1 0x4 ADD PUSH1 0x40 MLOAD DUP1 SWAP2 SUB SWAP1 REVERT JUMPDEST PUSH1 0x0 PUSH1 0x1 PUSH1 0x0 DUP1 PUSH1 0x0 ADD PUSH1 0x0 SWAP1 SLOAD SWAP1 PUSH2 0x100 EXP SWAP1 DIV PUSH1 0xFF AND PUSH1 0x1 DUP2 GT ISZERO PUSH2 0x333 JUMPI PUSH2 0x332 PUSH2 0xC92 JUMP JUMPDEST JUMPDEST PUSH1 0x1 DUP2 GT ISZERO PUSH2 0x345 JUMPI PUSH2 0x344 PUSH2 0xC92 JUMP JUMPDEST JUMPDEST DUP2 MSTORE PUSH1 0x20 ADD SWAP1 DUP2 MSTORE PUSH1 0x20 ADD PUSH1 0x0 KECCAK256 SLOAD DUP3 PUSH1 0x1 PUSH1 0x0 DUP1 PUSH1 0x0 ADD PUSH1 0x1 SWAP1 SLOAD SWAP1 PUSH2 0x100 EXP SWAP1 DIV PUSH1 0xFF AND PUSH1 0x1 DUP2 GT ISZERO PUSH2 0x37D JUMPI PUSH2 0x37C PUSH2 0xC92 JUMP JUMPDEST JUMPDEST PUSH1 0x1 DUP2 GT ISZERO PUSH2 0x38F JUMPI PUSH2 0x38E PUSH2 0xC92 JUMP JUMPDEST JUMPDEST DUP2 MSTORE PUSH1 0x20 ADD SWAP1 DUP2 MSTORE PUSH1 0x20 ADD PUSH1 0x0 KECCAK256 SLOAD PUSH2 0x3A8 SWAP2 SWAP1 PUSH2 0xB54 JUMP JUMPDEST PUSH2 0x3B2 SWAP2 SWAP1 PUSH2 0xB23 JUMP JUMPDEST DUP3 PUSH2 0x3BD SWAP2 SWAP1 PUSH2 0xACD JUMP JUMPDEST SWAP1 POP PUSH1 0x0 PUSH1 0x2 PUSH1 0x0 CALLER PUSH20 0xFFFFFFFFFFFFFFFFFFFFFFFFFFFFFFFFFFFFFFFF AND PUSH20 0xFFFFFFFFFFFFFFFFFFFFFFFFFFFFFFFFFFFFFFFF AND DUP2 MSTORE PUSH1 0x20 ADD SWAP1 DUP2 MSTORE PUSH1 0x20 ADD PUSH1 0x0 KECCAK256 PUSH1 0x0 DUP1 PUSH1 0x1 DUP2 GT ISZERO PUSH2 0x415 JUMPI PUSH2 0x414 PUSH2 0xC92 JUMP JUMPDEST JUMPDEST PUSH1 0x1 DUP2 GT ISZERO PUSH2 0x427 JUMPI PUSH2 0x426 PUSH2 0xC92 JUMP JUMPDEST JUMPDEST DUP2 MSTORE PUSH1 0x20 ADD SWAP1 DUP2 MSTORE PUSH1 0x20 ADD PUSH1 0x0 KECCAK256 DUP2 SWAP1 SSTORE POP PUSH1 0x0 PUSH1 0x2 PUSH1 0x0 CALLER PUSH20 0xFFFFFFFFFFFFFFFFFFFFFFFFFFFFFFFFFFFFFFFF AND PUSH20 0xFFFFFFFFFFFFFFFFFFFFFFFFFFFFFFFFFFFFFFFF AND DUP2 MSTORE PUSH1 0x20 ADD SWAP1 DUP2 MSTORE PUSH1 0x20 ADD PUSH1 0x0 KECCAK256 PUSH1 0x0 PUSH1 0x1 DUP1 DUP2 GT ISZERO PUSH2 0x48F JUMPI PUSH2 0x48E PUSH2 0xC92 JUMP JUMPDEST JUMPDEST PUSH1 0x1 DUP2 GT ISZERO PUSH2 0x4A1 JUMPI PUSH2 0x4A0 PUSH2 0xC92 JUMP JUMPDEST JUMPDEST DUP2 MSTORE PUSH1 0x20 ADD SWAP1 DUP2 MSTORE PUSH1 0x20 ADD PUSH1 0x0 KECCAK256 DUP2 SWAP1 SSTORE POP PUSH1 0x0 CALLER PUSH20 0xFFFFFFFFFFFFFFFFFFFFFFFFFFFFFFFFFFFFFFFF AND DUP3 PUSH1 0x40 MLOAD PUSH2 0x4D9 SWAP1 PUSH2 0xA33 JUMP JUMPDEST PUSH1 0x0 PUSH1 0x40 MLOAD DUP1 DUP4 SUB DUP2 DUP6 DUP8 GAS CALL SWAP3 POP POP POP RETURNDATASIZE DUP1 PUSH1 0x0 DUP2 EQ PUSH2 0x516 JUMPI PUSH1 0x40 MLOAD SWAP2 POP PUSH1 0x1F NOT PUSH1 0x3F RETURNDATASIZE ADD AND DUP3 ADD PUSH1 0x40 MSTORE RETURNDATASIZE DUP3 MSTORE RETURNDATASIZE PUSH1 0x0 PUSH1 0x20 DUP5 ADD RETURNDATACOPY PUSH2 0x51B JUMP JUMPDEST PUSH1 0x60 SWAP2 POP JUMPDEST POP POP SWAP1 POP DUP1 PUSH2 0x556 JUMPI PUSH1 0x40 MLOAD PUSH32 0x6EF66BC400000000000000000000000000000000000000000000000000000000 DUP2 MSTORE PUSH1 0x4 ADD PUSH1 0x40 MLOAD DUP1 SWAP2 SUB SWAP1 REVERT JUMPDEST DUP2 CALLER PUSH20 0xFFFFFFFFFFFFFFFFFFFFFFFFFFFFFFFFFFFFFFFF AND PUSH32 0x8AFA837E1DAD3D228F7DBCC42018B9C8B7EFFF9B88D3D63035963EDFC75CB546 PUSH1 0x40 MLOAD PUSH1 0x40 MLOAD DUP1 SWAP2 SUB SWAP1 LOG3 POP POP POP JUMP JUMPDEST PUSH1 0x0 PUSH1 0x1 DUP2 GT ISZERO PUSH2 0x5B3 JUMPI PUSH2 0x5B2 PUSH2 0xC92 JUMP JUMPDEST JUMPDEST PUSH1 0x3 PUSH1 0x0 SWAP1 SLOAD SWAP1 PUSH2 0x100 EXP SWAP1 DIV PUSH1 0xFF AND PUSH1 0x1 DUP2 GT ISZERO PUSH2 0x5D5 JUMPI PUSH2 0x5D4 PUSH2 0xC92 JUMP JUMPDEST JUMPDEST EQ PUSH2 0x60C JUMPI PUSH1 0x40 MLOAD PUSH32 0xF961D63000000000000000000000000000000000000000000000000000000000 DUP2 MSTORE PUSH1 0x4 ADD PUSH1 0x40 MLOAD DUP1 SWAP2 SUB SWAP1 REVERT JUMPDEST PUSH1 0x0 CALLVALUE EQ ISZERO PUSH2 0x647 JUMPI PUSH1 0x40 MLOAD PUSH32 0x18FD7ED900000000000000000000000000000000000000000000000000000000 DUP2 MSTORE PUSH1 0x4 ADD PUSH1 0x40 MLOAD DUP1 SWAP2 SUB SWAP1 REVERT JUMPDEST CALLVALUE PUSH1 0x1 PUSH1 0x0 DUP4 PUSH1 0x1 DUP2 GT ISZERO PUSH2 0x65F JUMPI PUSH2 0x65E PUSH2 0xC92 JUMP JUMPDEST JUMPDEST PUSH1 0x1 DUP2 GT ISZERO PUSH2 0x671 JUMPI PUSH2 0x670 PUSH2 0xC92 JUMP JUMPDEST JUMPDEST DUP2 MSTORE PUSH1 0x20 ADD SWAP1 DUP2 MSTORE PUSH1 0x20 ADD PUSH1 0x0 KECCAK256 PUSH1 0x0 DUP3 DUP3 SLOAD PUSH2 0x68E SWAP2 SWAP1 PUSH2 0xACD JUMP JUMPDEST SWAP3 POP POP DUP2 SWAP1 SSTORE POP CALLVALUE PUSH1 0x2 PUSH1 0x0 CALLER PUSH20 0xFFFFFFFFFFFFFFFFFFFFFFFFFFFFFFFFFFFFFFFF AND PUSH20 0xFFFFFFFFFFFFFFFFFFFFFFFFFFFFFFFFFFFFFFFF AND DUP2 MSTORE PUSH1 0x20 ADD SWAP1 DUP2 MSTORE PUSH1 0x20 ADD PUSH1 0x0 KECCAK256 PUSH1 0x0 DUP4 PUSH1 0x1 DUP2 GT ISZERO PUSH2 0x6EA JUMPI PUSH2 0x6E9 PUSH2 0xC92 JUMP JUMPDEST JUMPDEST PUSH1 0x1 DUP2 GT ISZERO PUSH2 0x6FC JUMPI PUSH2 0x6FB PUSH2 0xC92 JUMP JUMPDEST JUMPDEST DUP2 MSTORE PUSH1 0x20 ADD SWAP1 DUP2 MSTORE PUSH1 0x20 ADD PUSH1 0x0 KECCAK256 PUSH1 0x0 DUP3 DUP3 SLOAD PUSH2 0x719 SWAP2 SWAP1 PUSH2 0xACD JUMP JUMPDEST SWAP3 POP POP DUP2 SWAP1 SSTORE POP CALLVALUE CALLER PUSH20 0xFFFFFFFFFFFFFFFFFFFFFFFFFFFFFFFFFFFFFFFF AND PUSH32 0x43E08D78302CDF9C94E1FFD293C2A3696139EE41CF3199B6F5EED9C7F6CC6090 PUSH1 0x40 MLOAD PUSH1 0x40 MLOAD DUP1 SWAP2 SUB SWAP1 LOG3 POP JUMP JUMPDEST PUSH1 0x3 PUSH1 0x0 SWAP1 SLOAD SWAP1 PUSH2 0x100 EXP SWAP1 DIV PUSH1 0xFF AND DUP2 JUMP JUMPDEST PUSH1 0x0 DUP1 PUSH1 0x0 ADD PUSH1 0x0 SWAP1 SLOAD SWAP1 PUSH2 0x100 EXP SWAP1 DIV PUSH1 0xFF AND SWAP1 DUP1 PUSH1 0x0 ADD PUSH1 0x1 SWAP1 SLOAD SWAP1 PUSH2 0x100 EXP SWAP1 DIV PUSH1 0xFF AND SWAP1 POP DUP3 JUMP JUMPDEST PUSH1 0x0 PUSH1 0x1 DUP2 GT ISZERO PUSH2 0x7BA JUMPI PUSH2 0x7B9 PUSH2 0xC92 JUMP JUMPDEST JUMPDEST PUSH1 0x3 PUSH1 0x0 SWAP1 SLOAD SWAP1 PUSH2 0x100 EXP SWAP1 DIV PUSH1 0xFF AND PUSH1 0x1 DUP2 GT ISZERO PUSH2 0x7DC JUMPI PUSH2 0x7DB PUSH2 0xC92 JUMP JUMPDEST JUMPDEST EQ PUSH2 0x813 JUMPI PUSH1 0x40 MLOAD PUSH32 0xF961D63000000000000000000000000000000000000000000000000000000000 DUP2 MSTORE PUSH1 0x4 ADD PUSH1 0x40 MLOAD DUP1 SWAP2 SUB SWAP1 REVERT JUMPDEST DUP2 PUSH1 0x0 DUP1 ADD PUSH1 0x0 PUSH2 0x100 EXP DUP2 SLOAD DUP2 PUSH1 0xFF MUL NOT AND SWAP1 DUP4 PUSH1 0x1 DUP2 GT ISZERO PUSH2 0x83A JUMPI PUSH2 0x839 PUSH2 0xC92 JUMP JUMPDEST JUMPDEST MUL OR SWAP1 SSTORE POP DUP1 PUSH1 0x0 DUP1 ADD PUSH1 0x1 PUSH2 0x100 EXP DUP2 SLOAD DUP2 PUSH1 0xFF MUL NOT AND SWAP1 DUP4 PUSH1 0x1 DUP2 GT ISZERO PUSH2 0x866 JUMPI PUSH2 0x865 PUSH2 0xC92 JUMP JUMPDEST JUMPDEST MUL OR SWAP1 SSTORE POP PUSH1 0x1 PUSH1 0x3 PUSH1 0x0 PUSH2 0x100 EXP DUP2 SLOAD DUP2 PUSH1 0xFF MUL NOT AND SWAP1 DUP4 PUSH1 0x1 DUP2 GT ISZERO PUSH2 0x891 JUMPI PUSH2 0x890 PUSH2 0xC92 JUMP JUMPDEST JUMPDEST MUL OR SWAP1 SSTORE POP POP POP JUMP JUMPDEST PUSH1 0x3 PUSH1 0x1 SWAP1 SLOAD SWAP1 PUSH2 0x100 EXP SWAP1 DIV PUSH20 0xFFFFFFFFFFFFFFFFFFFFFFFFFFFFFFFFFFFFFFFF AND DUP2 JUMP JUMPDEST PUSH1 0x1 PUSH1 0x20 MSTORE DUP1 PUSH1 0x0 MSTORE PUSH1 0x40 PUSH1 0x0 KECCAK256 PUSH1 0x0 SWAP2 POP SWAP1 POP SLOAD DUP2 JUMP JUMPDEST PUSH1 0x2 PUSH1 0x20 MSTORE DUP2 PUSH1 0x0 MSTORE PUSH1 0x40 PUSH1 0x0 KECCAK256 PUSH1 0x20 MSTORE DUP1 PUSH1 0x0 MSTORE PUSH1 0x40 PUSH1 0x0 KECCAK256 PUSH1 0x0 SWAP2 POP SWAP2 POP POP SLOAD DUP2 JUMP JUMPDEST PUSH1 0x0 DUP2 CALLDATALOAD SWAP1 POP PUSH2 0x90C DUP2 PUSH2 0xCF1 JUMP JUMPDEST SWAP3 SWAP2 POP POP JUMP JUMPDEST PUSH1 0x0 DUP2 CALLDATALOAD SWAP1 POP PUSH2 0x921 DUP2 PUSH2 0xD08 JUMP JUMPDEST SWAP3 SWAP2 POP POP JUMP JUMPDEST PUSH1 0x0 DUP1 PUSH1 0x40 DUP4 DUP6 SUB SLT ISZERO PUSH2 0x93E JUMPI PUSH2 0x93D PUSH2 0xCC1 JUMP JUMPDEST JUMPDEST PUSH1 0x0 PUSH2 0x94C DUP6 DUP3 DUP7 ADD PUSH2 0x8FD JUMP JUMPDEST SWAP3 POP POP PUSH1 0x20 PUSH2 0x95D DUP6 DUP3 DUP7 ADD PUSH2 0x912 JUMP JUMPDEST SWAP2 POP POP SWAP3 POP SWAP3 SWAP1 POP JUMP JUMPDEST PUSH1 0x0 PUSH1 0x20 DUP3 DUP5 SUB SLT ISZERO PUSH2 0x97D JUMPI PUSH2 0x97C PUSH2 0xCC1 JUMP JUMPDEST JUMPDEST PUSH1 0x0 PUSH2 0x98B DUP5 DUP3 DUP6 ADD PUSH2 0x912 JUMP JUMPDEST SWAP2 POP POP SWAP3 SWAP2 POP POP JUMP JUMPDEST PUSH1 0x0 DUP1 PUSH1 0x40 DUP4 DUP6 SUB SLT ISZERO PUSH2 0x9AB JUMPI PUSH2 0x9AA PUSH2 0xCC1 JUMP JUMPDEST JUMPDEST PUSH1 0x0 PUSH2 0x9B9 DUP6 DUP3 DUP7 ADD PUSH2 0x912 JUMP JUMPDEST SWAP3 POP POP PUSH1 0x20 PUSH2 0x9CA DUP6 DUP3 DUP7 ADD PUSH2 0x912 JUMP JUMPDEST SWAP2 POP POP SWAP3 POP SWAP3 SWAP1 POP JUMP JUMPDEST PUSH2 0x9DD DUP2 PUSH2 0xBAE JUMP JUMPDEST DUP3 MSTORE POP POP JUMP JUMPDEST PUSH2 0x9EC DUP2 PUSH2 0xC10 JUMP JUMPDEST DUP3 MSTORE POP POP JUMP JUMPDEST PUSH2 0x9FB DUP2 PUSH2 0xC22 JUMP JUMPDEST DUP3 MSTORE POP POP JUMP JUMPDEST PUSH1 0x0 PUSH2 0xA0E PUSH1 0x0 DUP4 PUSH2 0xAC2 JUMP JUMPDEST SWAP2 POP PUSH2 0xA19 DUP3 PUSH2 0xCC6 JUMP JUMPDEST PUSH1 0x0 DUP3 ADD SWAP1 POP SWAP2 SWAP1 POP JUMP JUMPDEST PUSH2 0xA2D DUP2 PUSH2 0xC06 JUMP JUMPDEST DUP3 MSTORE POP POP JUMP JUMPDEST PUSH1 0x0 PUSH2 0xA3E DUP3 PUSH2 0xA01 JUMP JUMPDEST SWAP2 POP DUP2 SWAP1 POP SWAP2 SWAP1 POP JUMP JUMPDEST PUSH1 0x0 PUSH1 0x20 DUP3 ADD SWAP1 POP PUSH2 0xA5D PUSH1 0x0 DUP4 ADD DUP5 PUSH2 0x9D4 JUMP JUMPDEST SWAP3 SWAP2 POP POP JUMP JUMPDEST PUSH1 0x0 PUSH1 0x20 DUP3 ADD SWAP1 POP PUSH2 0xA78 PUSH1 0x0 DUP4 ADD DUP5 PUSH2 0x9E3 JUMP JUMPDEST SWAP3 SWAP2 POP POP JUMP JUMPDEST PUSH1 0x0 PUSH1 0x40 DUP3 ADD SWAP1 POP PUSH2 0xA93 PUSH1 0x0 DUP4 ADD DUP6 PUSH2 0x9F2 JUMP JUMPDEST PUSH2 0xAA0 PUSH1 0x20 DUP4 ADD DUP5 PUSH2 0x9F2 JUMP JUMPDEST SWAP4 SWAP3 POP POP POP JUMP JUMPDEST PUSH1 0x0 PUSH1 0x20 DUP3 ADD SWAP1 POP PUSH2 0xABC PUSH1 0x0 DUP4 ADD DUP5 PUSH2 0xA24 JUMP JUMPDEST SWAP3 SWAP2 POP POP JUMP JUMPDEST PUSH1 0x0 DUP2 SWAP1 POP SWAP3 SWAP2 POP POP JUMP JUMPDEST PUSH1 0x0 PUSH2 0xAD8 DUP3 PUSH2 0xC06 JUMP JUMPDEST SWAP2 POP PUSH2 0xAE3 DUP4 PUSH2 0xC06 JUMP JUMPDEST SWAP3 POP DUP3 PUSH32 0xFFFFFFFFFFFFFFFFFFFFFFFFFFFFFFFFFFFFFFFFFFFFFFFFFFFFFFFFFFFFFFFF SUB DUP3 GT ISZERO PUSH2 0xB18 JUMPI PUSH2 0xB17 PUSH2 0xC34 JUMP JUMPDEST JUMPDEST DUP3 DUP3 ADD SWAP1 POP SWAP3 SWAP2 POP POP JUMP JUMPDEST PUSH1 0x0 PUSH2 0xB2E DUP3 PUSH2 0xC06 JUMP JUMPDEST SWAP2 POP PUSH2 0xB39 DUP4 PUSH2 0xC06 JUMP JUMPDEST SWAP3 POP DUP3 PUSH2 0xB49 JUMPI PUSH2 0xB48 PUSH2 0xC63 JUMP JUMPDEST JUMPDEST DUP3 DUP3 DIV SWAP1 POP SWAP3 SWAP2 POP POP JUMP JUMPDEST PUSH1 0x0 PUSH2 0xB5F DUP3 PUSH2 0xC06 JUMP JUMPDEST SWAP2 POP PUSH2 0xB6A DUP4 PUSH2 0xC06 JUMP JUMPDEST SWAP3 POP DUP2 PUSH32 0xFFFFFFFFFFFFFFFFFFFFFFFFFFFFFFFFFFFFFFFFFFFFFFFFFFFFFFFFFFFFFFFF DIV DUP4 GT DUP3 ISZERO ISZERO AND ISZERO PUSH2 0xBA3 JUMPI PUSH2 0xBA2 PUSH2 0xC34 JUMP JUMPDEST JUMPDEST DUP3 DUP3 MUL SWAP1 POP SWAP3 SWAP2 POP POP JUMP JUMPDEST PUSH1 0x0 PUSH2 0xBB9 DUP3 PUSH2 0xBE6 JUMP JUMPDEST SWAP1 POP SWAP2 SWAP1 POP JUMP JUMPDEST PUSH1 0x0 DUP2 SWAP1 POP PUSH2 0xBCE DUP3 PUSH2 0xCC9 JUMP JUMPDEST SWAP2 SWAP1 POP JUMP JUMPDEST PUSH1 0x0 DUP2 SWAP1 POP PUSH2 0xBE1 DUP3 PUSH2 0xCDD JUMP JUMPDEST SWAP2 SWAP1 POP JUMP JUMPDEST PUSH1 0x0 PUSH20 0xFFFFFFFFFFFFFFFFFFFFFFFFFFFFFFFFFFFFFFFF DUP3 AND SWAP1 POP SWAP2 SWAP1 POP JUMP JUMPDEST PUSH1 0x0 DUP2 SWAP1 POP SWAP2 SWAP1 POP JUMP JUMPDEST PUSH1 0x0 PUSH2 0xC1B DUP3 PUSH2 0xBC0 JUMP JUMPDEST SWAP1 POP SWAP2 SWAP1 POP JUMP JUMPDEST PUSH1 0x0 PUSH2 0xC2D DUP3 PUSH2 0xBD3 JUMP JUMPDEST SWAP1 POP SWAP2 SWAP1 POP JUMP JUMPDEST PUSH32 0x4E487B7100000000000000000000000000000000000000000000000000000000 PUSH1 0x0 MSTORE PUSH1 0x11 PUSH1 0x4 MSTORE PUSH1 0x24 PUSH1 0x0 REVERT JUMPDEST PUSH32 0x4E487B7100000000000000000000000000000000000000000000000000000000 PUSH1 0x0 MSTORE PUSH1 0x12 PUSH1 0x4 MSTORE PUSH1 0x24 PUSH1 0x0 REVERT JUMPDEST PUSH32 0x4E487B7100000000000000000000000000000000000000000000000000000000 PUSH1 0x0 MSTORE PUSH1 0x21 PUSH1 0x4 MSTORE PUSH1 0x24 PUSH1 0x0 REVERT JUMPDEST PUSH1 0x0 DUP1 REVERT JUMPDEST POP JUMP JUMPDEST PUSH1 0x2 DUP2 LT PUSH2 0xCDA JUMPI PUSH2 0xCD9 PUSH2 0xC92 JUMP JUMPDEST JUMPDEST POP JUMP JUMPDEST PUSH1 0x2 DUP2 LT PUSH2 0xCEE JUMPI PUSH2 0xCED PUSH2 0xC92 JUMP JUMPDEST JUMPDEST POP JUMP JUMPDEST PUSH2 0xCFA DUP2 PUSH2 0xBAE JUMP JUMPDEST DUP2 EQ PUSH2 0xD05 JUMPI PUSH1 0x0 DUP1 REVERT JUMPDEST POP JUMP JUMPDEST PUSH1 0x2 DUP2 LT PUSH2 0xD15 JUMPI PUSH1 0x0 DUP1 REVERT JUMPDEST POP JUMP INVALID LOG2 PUSH5 0x6970667358 0x22 SLT KECCAK256 0xCE PUSH32 0xC4F4E58EF808E6391A9E3784516549E822E4983F4FA4CCA1247114E7F9776473 PUSH16 0x6C634300080700330000000000000000 "},"gasEstimates":{"creation":{"codeDepositCost":"681200","executionCost":"25014","totalCost":"706214"},"external":{"bets(uint8)":"2766","betsToGambler(address,uint8)":"3073","oracle()":"2586","placeBet(uint8)":"infinite","reportResult(uint8,uint8)":"infinite","s_eventstate()":"2605","s_result()":"infinite","withdrawGain()":"infinite"}},"methodIdentifiers":{"bets(uint8)":"7e0ecc00","betsToGambler(address,uint8)":"860b951b","oracle()":"7dc0d1d0","placeBet(uint8)":"43046844","reportResult(uint8,uint8)":"4ec942b7","s_eventstate()":"45a7c2b8","s_result()":"4a71079c","withdrawGain()":"2b539c86"}},"storageLayout":{"storage":[{"astId":29,"contract":"contracts/PredictionMarket.sol:PredictionMarket","label":"s_result","offset":0,"slot":"0","type":"t_struct(Result)26_storage"},{"astId":34,"contract":"contracts/PredictionMarket.sol:PredictionMarket","label":"bets","offset":0,"slot":"1","type":"t_mapping(t_enum(Party)16,t_uint256)"},{"astId":41,"contract":"contracts/PredictionMarket.sol:PredictionMarket","label":"betsToGambler","offset":0,"slot":"2","type":"t_mapping(t_address,t_mapping(t_enum(Party)16,t_uint256))"},{"astId":44,"contract":"contracts/PredictionMarket.sol:PredictionMarket","label":"s_eventstate","offset":0,"slot":"3","type":"t_enum(EventState)19"},{"astId":46,"contract":"contracts/PredictionMarket.sol:PredictionMarket","label":"oracle","offset":1,"slot":"3","type":"t_address"}],"types":{"t_address":{"encoding":"inplace","label":"address","numberOfBytes":"20"},"t_enum(EventState)19":{"encoding":"inplace","label":"enum PredictionMarket.EventState","numberOfBytes":"1"},"t_enum(Party)16":{"encoding":"inplace","label":"enum PredictionMarket.Party","numberOfBytes":"1"},"t_mapping(t_address,t_mapping(t_enum(Party)16,t_uint256))":{"encoding":"mapping","key":"t_address","label":"mapping(address => mapping(enum PredictionMarket.Party => uint256))","numberOfBytes":"32","value":"t_mapping(t_enum(Party)16,t_uint256)"},"t_mapping(t_enum(Party)16,t_uint256)":{"encoding":"mapping","key":"t_enum(Party)16","label":"mapping(enum PredictionMarket.Party => uint256)","numberOfBytes":"32","value":"t_uint256"},"t_struct(Result)26_storage":{"encoding":"inplace","label":"struct PredictionMarket.Result","members":[{"astId":22,"contract":"contracts/PredictionMarket.sol:PredictionMarket","label":"winner","offset":0,"slot":"0","type":"t_enum(Party)16"},{"astId":25,"contract":"contracts/PredictionMarket.sol:PredictionMarket","label":"loser","offset":1,"slot":"0","type":"t_enum(Party)16"}],"numberOfBytes":"32"},"t_uint256":{"encoding":"inplace","label":"uint256","numberOfBytes":"32"}}},"userdoc":{"kind":"user","methods":{},"version":1}}}}