{
  "_format": "hh-sol-artifact-1",
  "contractName": "PredictionMarket",
  "sourceName": "contracts/PredictionMarket.sol",
  "abi": [
    {
      "inputs": [
        {
          "internalType": "address",
          "name": "_oracle",
          "type": "address"
        }
      ],
      "stateMutability": "nonpayable",
      "type": "constructor"
    },
    {
      "inputs": [],
      "name": "PredictionMarket__ElectionFinished",
      "type": "error"
    },
    {
      "inputs": [],
      "name": "PredictionMarket__NotEnoughEthSent",
      "type": "error"
    },
    {
      "inputs": [
        {
          "internalType": "enum PredictionMarket.Party",
          "name": "",
          "type": "uint8"
        }
      ],
      "name": "bets",
      "outputs": [
        {
          "internalType": "uint256",
          "name": "",
          "type": "uint256"
        }
      ],
      "stateMutability": "view",
      "type": "function"
    },
    {
      "inputs": [
        {
          "internalType": "address",
          "name": "",
          "type": "address"
        },
        {
          "internalType": "enum PredictionMarket.Party",
          "name": "",
          "type": "uint8"
        }
      ],
      "name": "betsToGambler",
      "outputs": [
        {
          "internalType": "uint256",
          "name": "",
          "type": "uint256"
        }
      ],
      "stateMutability": "view",
      "type": "function"
    },
    {
      "inputs": [],
      "name": "electionFinished",
      "outputs": [
        {
          "internalType": "bool",
          "name": "",
          "type": "bool"
        }
      ],
      "stateMutability": "view",
      "type": "function"
    },
    {
      "inputs": [],
      "name": "oracle",
      "outputs": [
        {
          "internalType": "address",
          "name": "",
          "type": "address"
        }
      ],
      "stateMutability": "view",
      "type": "function"
    },
    {
      "inputs": [
        {
          "internalType": "enum PredictionMarket.Party",
          "name": "_party",
          "type": "uint8"
        }
      ],
      "name": "placeBet",
      "outputs": [],
      "stateMutability": "payable",
      "type": "function"
    }
  ],
  "bytecode": "0x608060405234801561001057600080fd5b506040516106983803806106988339818101604052810190610032919061008e565b80600260016101000a81548173ffffffffffffffffffffffffffffffffffffffff021916908373ffffffffffffffffffffffffffffffffffffffff16021790555050610109565b600081519050610088816100f2565b92915050565b6000602082840312156100a4576100a36100ed565b5b60006100b284828501610079565b91505092915050565b60006100c6826100cd565b9050919050565b600073ffffffffffffffffffffffffffffffffffffffff82169050919050565b600080fd5b6100fb816100bb565b811461010657600080fd5b50565b610580806101186000396000f3fe60806040526004361061004a5760003560e01c8063430468441461004f5780637dc0d1d01461006b5780637e0ecc0014610096578063860b951b146100d3578063beab6e7e14610110575b600080fd5b61006960048036038101906100649190610377565b61013b565b005b34801561007757600080fd5b50610080610297565b60405161008d91906103d1565b60405180910390f35b3480156100a257600080fd5b506100bd60048036038101906100b89190610377565b6102bd565b6040516100ca9190610407565b60405180910390f35b3480156100df57600080fd5b506100fa60048036038101906100f59190610337565b6102d5565b6040516101079190610407565b60405180910390f35b34801561011c57600080fd5b506101256102fa565b60405161013291906103ec565b60405180910390f35b600260009054906101000a900460ff1615610182576040517ff961d63000000000000000000000000000000000000000000000000000000000815260040160405180910390fd5b600034116101bc576040517f18fd7ed900000000000000000000000000000000000000000000000000000000815260040160405180910390fd5b346000808360018111156101d3576101d26104ef565b5b60018111156101e5576101e46104ef565b5b815260200190815260200160002060008282546102029190610422565b9250508190555034600160003373ffffffffffffffffffffffffffffffffffffffff1673ffffffffffffffffffffffffffffffffffffffff168152602001908152602001600020600083600181111561025e5761025d6104ef565b5b60018111156102705761026f6104ef565b5b8152602001908152602001600020600082825461028d9190610422565b9250508190555050565b600260019054906101000a900473ffffffffffffffffffffffffffffffffffffffff1681565b60006020528060005260406000206000915090505481565b6001602052816000526040600020602052806000526040600020600091509150505481565b600260009054906101000a900460ff1681565b60008135905061031c81610523565b92915050565b6000813590506103318161053a565b92915050565b6000806040838503121561034e5761034d61051e565b5b600061035c8582860161030d565b925050602061036d85828601610322565b9150509250929050565b60006020828403121561038d5761038c61051e565b5b600061039b84828501610322565b91505092915050565b6103ad81610478565b82525050565b6103bc8161048a565b82525050565b6103cb816104b6565b82525050565b60006020820190506103e660008301846103a4565b92915050565b600060208201905061040160008301846103b3565b92915050565b600060208201905061041c60008301846103c2565b92915050565b600061042d826104b6565b9150610438836104b6565b9250827fffffffffffffffffffffffffffffffffffffffffffffffffffffffffffffffff0382111561046d5761046c6104c0565b5b828201905092915050565b600061048382610496565b9050919050565b60008115159050919050565b600073ffffffffffffffffffffffffffffffffffffffff82169050919050565b6000819050919050565b7f4e487b7100000000000000000000000000000000000000000000000000000000600052601160045260246000fd5b7f4e487b7100000000000000000000000000000000000000000000000000000000600052602160045260246000fd5b600080fd5b61052c81610478565b811461053757600080fd5b50565b6002811061054757600080fd5b5056fea2646970667358221220fe1ab2b33a773840ec3026bf3de38165a1e7f90352dc32230770fd263a28e65464736f6c63430008070033",
  "linkReferences": {},
  "deployedLinkReferences": {}
}