{
  "_format": "hh-sol-artifact-1",
  "contractName": "PredictionMarket",
  "sourceName": "contracts/PredictionMarket.sol",
  "abi": [
    {
      "inputs": [],
      "stateMutability": "nonpayable",
      "type": "constructor"
    },
    {
      "inputs": [],
      "name": "PredictionMarket__ElectionFinished",
      "type": "error"
    },
    {
      "inputs": [],
      "name": "PredictionMarket__ElectionNotFinished",
      "type": "error"
    },
    {
      "inputs": [],
      "name": "PredictionMarket__NoWinningBets",
      "type": "error"
    },
    {
      "inputs": [],
      "name": "PredictionMarket__NotEnoughEthSent",
      "type": "error"
    },
    {
      "inputs": [],
      "name": "PredictionMarket__TransferFailed",
      "type": "error"
    },
    {
      "anonymous": false,
      "inputs": [
        {
          "indexed": true,
          "internalType": "address",
          "name": "gambler",
          "type": "address"
        },
        {
          "indexed": true,
          "internalType": "uint256",
          "name": "bet",
          "type": "uint256"
        }
      ],
      "name": "BetPlaced",
      "type": "event"
    },
    {
      "anonymous": false,
      "inputs": [
        {
          "indexed": true,
          "internalType": "address",
          "name": "gambler",
          "type": "address"
        },
        {
          "indexed": true,
          "internalType": "uint256",
          "name": "gain",
          "type": "uint256"
        }
      ],
      "name": "GamblerPaid",
      "type": "event"
    },
    {
      "inputs": [
        {
          "internalType": "enum PredictionMarket.Party",
          "name": "",
          "type": "uint8"
        }
      ],
      "name": "bets",
      "outputs": [
        {
          "internalType": "uint256",
          "name": "",
          "type": "uint256"
        }
      ],
      "stateMutability": "view",
      "type": "function"
    },
    {
      "inputs": [
        {
          "internalType": "address",
          "name": "",
          "type": "address"
        },
        {
          "internalType": "enum PredictionMarket.Party",
          "name": "",
          "type": "uint8"
        }
      ],
      "name": "betsToGambler",
      "outputs": [
        {
          "internalType": "uint256",
          "name": "",
          "type": "uint256"
        }
      ],
      "stateMutability": "view",
      "type": "function"
    },
    {
      "inputs": [],
      "name": "oracle",
      "outputs": [
        {
          "internalType": "address",
          "name": "",
          "type": "address"
        }
      ],
      "stateMutability": "view",
      "type": "function"
    },
    {
      "inputs": [
        {
          "internalType": "enum PredictionMarket.Party",
          "name": "_party",
          "type": "uint8"
        }
      ],
      "name": "placeBet",
      "outputs": [],
      "stateMutability": "payable",
      "type": "function"
    },
    {
      "inputs": [
        {
          "internalType": "enum PredictionMarket.Party",
          "name": "_winner",
          "type": "uint8"
        },
        {
          "internalType": "enum PredictionMarket.Party",
          "name": "_loser",
          "type": "uint8"
        }
      ],
      "name": "reportResult",
      "outputs": [],
      "stateMutability": "nonpayable",
      "type": "function"
    },
    {
      "inputs": [],
      "name": "s_eventstate",
      "outputs": [
        {
          "internalType": "enum PredictionMarket.EventState",
          "name": "",
          "type": "uint8"
        }
      ],
      "stateMutability": "view",
      "type": "function"
    },
    {
      "inputs": [],
      "name": "s_result",
      "outputs": [
        {
          "internalType": "enum PredictionMarket.Party",
          "name": "winner",
          "type": "uint8"
        },
        {
          "internalType": "enum PredictionMarket.Party",
          "name": "loser",
          "type": "uint8"
        }
      ],
      "stateMutability": "view",
      "type": "function"
    },
    {
      "inputs": [],
      "name": "withdrawGain",
      "outputs": [],
      "stateMutability": "nonpayable",
      "type": "function"
    }
  ],
  "bytecode": "0x608060405234801561001057600080fd5b506000600360006101000a81548160ff0219169083600181111561003757610036610041565b5b0217905550610070565b7f4e487b7100000000000000000000000000000000000000000000000000000000600052602160045260246000fd5b610d4e8061007f6000396000f3fe60806040526004361061007b5760003560e01c80634ec942b71161004e5780634ec942b71461010a5780637dc0d1d0146101335780637e0ecc001461015e578063860b951b1461019b5761007b565b80632b539c8614610080578063430468441461009757806345a7c2b8146100b35780634a71079c146100de575b600080fd5b34801561008c57600080fd5b506100956101d8565b005b6100b160048036038101906100ac9190610967565b61059f565b005b3480156100bf57600080fd5b506100c8610767565b6040516100d59190610a63565b60405180910390f35b3480156100ea57600080fd5b506100f361077a565b604051610101929190610a7e565b60405180910390f35b34801561011657600080fd5b50610131600480360381019061012c9190610994565b6107a6565b005b34801561013f57600080fd5b5061014861089a565b6040516101559190610a48565b60405180910390f35b34801561016a57600080fd5b5061018560048036038101906101809190610967565b6108c0565b6040516101929190610aa7565b60405180910390f35b3480156101a757600080fd5b506101c260048036038101906101bd9190610927565b6108d8565b6040516101cf9190610aa7565b60405180910390f35b6000600260003373ffffffffffffffffffffffffffffffffffffffff1673ffffffffffffffffffffffffffffffffffffffff16815260200190815260200160002060008060000160009054906101000a900460ff16600181111561023f5761023e610c92565b5b600181111561025157610250610c92565b5b8152602001908152602001600020549050600081101561029d576040517f808cc40900000000000000000000000000000000000000000000000000000000815260040160405180910390fd5b6001808111156102b0576102af610c92565b5b600360009054906101000a900460ff1660018111156102d2576102d1610c92565b5b14610309576040517fe5c192a000000000000000000000000000000000000000000000000000000000815260040160405180910390fd5b6000600160008060000160009054906101000a900460ff16600181111561033357610332610c92565b5b600181111561034557610344610c92565b5b81526020019081526020016000205482600160008060000160019054906101000a900460ff16600181111561037d5761037c610c92565b5b600181111561038f5761038e610c92565b5b8152602001908152602001600020546103a89190610b54565b6103b29190610b23565b826103bd9190610acd565b90506000600260003373ffffffffffffffffffffffffffffffffffffffff1673ffffffffffffffffffffffffffffffffffffffff168152602001908152602001600020600080600181111561041557610414610c92565b5b600181111561042757610426610c92565b5b8152602001908152602001600020819055506000600260003373ffffffffffffffffffffffffffffffffffffffff1673ffffffffffffffffffffffffffffffffffffffff168152602001908152602001600020600060018081111561048f5761048e610c92565b5b60018111156104a1576104a0610c92565b5b81526020019081526020016000208190555060003373ffffffffffffffffffffffffffffffffffffffff16826040516104d990610a33565b60006040518083038185875af1925050503d8060008114610516576040519150601f19603f3d011682016040523d82523d6000602084013e61051b565b606091505b5050905080610556576040517f6ef66bc400000000000000000000000000000000000000000000000000000000815260040160405180910390fd5b813373ffffffffffffffffffffffffffffffffffffffff167f8afa837e1dad3d228f7dbcc42018b9c8b7efff9b88d3d63035963edfc75cb54660405160405180910390a3505050565b600060018111156105b3576105b2610c92565b5b600360009054906101000a900460ff1660018111156105d5576105d4610c92565b5b1461060c576040517ff961d63000000000000000000000000000000000000000000000000000000000815260040160405180910390fd5b6000341415610647576040517f18fd7ed900000000000000000000000000000000000000000000000000000000815260040160405180910390fd5b346001600083600181111561065f5761065e610c92565b5b600181111561067157610670610c92565b5b8152602001908152602001600020600082825461068e9190610acd565b9250508190555034600260003373ffffffffffffffffffffffffffffffffffffffff1673ffffffffffffffffffffffffffffffffffffffff16815260200190815260200160002060008360018111156106ea576106e9610c92565b5b60018111156106fc576106fb610c92565b5b815260200190815260200160002060008282546107199190610acd565b92505081905550343373ffffffffffffffffffffffffffffffffffffffff167f43e08d78302cdf9c94e1ffd293c2a3696139ee41cf3199b6f5eed9c7f6cc609060405160405180910390a350565b600360009054906101000a900460ff1681565b60008060000160009054906101000a900460ff16908060000160019054906101000a900460ff16905082565b600060018111156107ba576107b9610c92565b5b600360009054906101000a900460ff1660018111156107dc576107db610c92565b5b14610813576040517ff961d63000000000000000000000000000000000000000000000000000000000815260040160405180910390fd5b816000800160006101000a81548160ff0219169083600181111561083a57610839610c92565b5b0217905550806000800160016101000a81548160ff0219169083600181111561086657610865610c92565b5b02179055506001600360006101000a81548160ff0219169083600181111561089157610890610c92565b5b02179055505050565b600360019054906101000a900473ffffffffffffffffffffffffffffffffffffffff1681565b60016020528060005260406000206000915090505481565b6002602052816000526040600020602052806000526040600020600091509150505481565b60008135905061090c81610cf1565b92915050565b60008135905061092181610d08565b92915050565b6000806040838503121561093e5761093d610cc1565b5b600061094c858286016108fd565b925050602061095d85828601610912565b9150509250929050565b60006020828403121561097d5761097c610cc1565b5b600061098b84828501610912565b91505092915050565b600080604083850312156109ab576109aa610cc1565b5b60006109b985828601610912565b92505060206109ca85828601610912565b9150509250929050565b6109dd81610bae565b82525050565b6109ec81610c10565b82525050565b6109fb81610c22565b82525050565b6000610a0e600083610ac2565b9150610a1982610cc6565b600082019050919050565b610a2d81610c06565b82525050565b6000610a3e82610a01565b9150819050919050565b6000602082019050610a5d60008301846109d4565b92915050565b6000602082019050610a7860008301846109e3565b92915050565b6000604082019050610a9360008301856109f2565b610aa060208301846109f2565b9392505050565b6000602082019050610abc6000830184610a24565b92915050565b600081905092915050565b6000610ad882610c06565b9150610ae383610c06565b9250827fffffffffffffffffffffffffffffffffffffffffffffffffffffffffffffffff03821115610b1857610b17610c34565b5b828201905092915050565b6000610b2e82610c06565b9150610b3983610c06565b925082610b4957610b48610c63565b5b828204905092915050565b6000610b5f82610c06565b9150610b6a83610c06565b9250817fffffffffffffffffffffffffffffffffffffffffffffffffffffffffffffffff0483118215151615610ba357610ba2610c34565b5b828202905092915050565b6000610bb982610be6565b9050919050565b6000819050610bce82610cc9565b919050565b6000819050610be182610cdd565b919050565b600073ffffffffffffffffffffffffffffffffffffffff82169050919050565b6000819050919050565b6000610c1b82610bc0565b9050919050565b6000610c2d82610bd3565b9050919050565b7f4e487b7100000000000000000000000000000000000000000000000000000000600052601160045260246000fd5b7f4e487b7100000000000000000000000000000000000000000000000000000000600052601260045260246000fd5b7f4e487b7100000000000000000000000000000000000000000000000000000000600052602160045260246000fd5b600080fd5b50565b60028110610cda57610cd9610c92565b5b50565b60028110610cee57610ced610c92565b5b50565b610cfa81610bae565b8114610d0557600080fd5b50565b60028110610d1557600080fd5b5056fea2646970667358221220ce7fc4f4e58ef808e6391a9e3784516549e822e4983f4fa4cca1247114e7f97764736f6c63430008070033",
  "linkReferences": {},
  "deployedLinkReferences": {}
}