{
  "_format": "hh-sol-artifact-1",
  "contractName": "PredictionMarket",
  "sourceName": "contracts/PredictionMarket.sol",
  "abi": [
    {
      "inputs": [],
      "stateMutability": "nonpayable",
      "type": "constructor"
    },
    {
      "inputs": [],
      "name": "PredictionMarket__ElectionFinished",
      "type": "error"
    },
    {
      "inputs": [],
      "name": "PredictionMarket__ElectionNotFinished",
      "type": "error"
    },
    {
      "inputs": [],
      "name": "PredictionMarket__NoWinningBets",
      "type": "error"
    },
    {
      "inputs": [],
      "name": "PredictionMarket__NotEnoughEthSent",
      "type": "error"
    },
    {
      "inputs": [],
      "name": "PredictionMarket__TransferFailed",
      "type": "error"
    },
    {
      "anonymous": false,
      "inputs": [
        {
          "indexed": true,
          "internalType": "address",
          "name": "gambler",
          "type": "address"
        },
        {
          "indexed": true,
          "internalType": "uint256",
          "name": "bet",
          "type": "uint256"
        }
      ],
      "name": "BetPlaced",
      "type": "event"
    },
    {
      "anonymous": false,
      "inputs": [
        {
          "indexed": true,
          "internalType": "address",
          "name": "gambler",
          "type": "address"
        },
        {
          "indexed": true,
          "internalType": "uint256",
          "name": "gain",
          "type": "uint256"
        }
      ],
      "name": "GamblerPaid",
      "type": "event"
    },
    {
      "inputs": [
        {
          "internalType": "enum PredictionMarket.Party",
          "name": "",
          "type": "uint8"
        }
      ],
      "name": "bets",
      "outputs": [
        {
          "internalType": "uint256",
          "name": "",
          "type": "uint256"
        }
      ],
      "stateMutability": "view",
      "type": "function"
    },
    {
      "inputs": [
        {
          "internalType": "address",
          "name": "",
          "type": "address"
        },
        {
          "internalType": "enum PredictionMarket.Party",
          "name": "",
          "type": "uint8"
        }
      ],
      "name": "betsToGambler",
      "outputs": [
        {
          "internalType": "uint256",
          "name": "",
          "type": "uint256"
        }
      ],
      "stateMutability": "view",
      "type": "function"
    },
    {
      "inputs": [],
      "name": "oracle",
      "outputs": [
        {
          "internalType": "address",
          "name": "",
          "type": "address"
        }
      ],
      "stateMutability": "view",
      "type": "function"
    },
    {
      "inputs": [
        {
          "internalType": "enum PredictionMarket.Party",
          "name": "_party",
          "type": "uint8"
        }
      ],
      "name": "placeBet",
      "outputs": [],
      "stateMutability": "payable",
      "type": "function"
    },
    {
      "inputs": [
        {
          "internalType": "enum PredictionMarket.Party",
          "name": "_winner",
          "type": "uint8"
        },
        {
          "internalType": "enum PredictionMarket.Party",
          "name": "_loser",
          "type": "uint8"
        }
      ],
      "name": "reportResult",
      "outputs": [],
      "stateMutability": "nonpayable",
      "type": "function"
    },
    {
      "inputs": [],
      "name": "s_eventstate",
      "outputs": [
        {
          "internalType": "enum PredictionMarket.EventState",
          "name": "",
          "type": "uint8"
        }
      ],
      "stateMutability": "view",
      "type": "function"
    },
    {
      "inputs": [],
      "name": "s_result",
      "outputs": [
        {
          "internalType": "enum PredictionMarket.Party",
          "name": "winner",
          "type": "uint8"
        },
        {
          "internalType": "enum PredictionMarket.Party",
          "name": "loser",
          "type": "uint8"
        }
      ],
      "stateMutability": "view",
      "type": "function"
    },
    {
      "inputs": [],
      "name": "setEventState",
      "outputs": [],
      "stateMutability": "nonpayable",
      "type": "function"
    },
    {
      "inputs": [],
      "name": "withdrawGain",
      "outputs": [],
      "stateMutability": "nonpayable",
      "type": "function"
    }
  ],
  "bytecode": "0x608060405234801561001057600080fd5b506000600360006101000a81548160ff0219169083600181111561003757610036610041565b5b0217905550610070565b7f4e487b7100000000000000000000000000000000000000000000000000000000600052602160045260246000fd5b610d9d8061007f6000396000f3fe6080604052600436106100865760003560e01c80634ec942b7116100595780634ec942b7146101155780636ee34c8d1461013e5780637dc0d1d0146101555780637e0ecc0014610180578063860b951b146101bd57610086565b80632b539c861461008b57806343046844146100a257806345a7c2b8146100be5780634a71079c146100e9575b600080fd5b34801561009757600080fd5b506100a06101fa565b005b6100bc60048036038101906100b791906109b6565b6105c1565b005b3480156100ca57600080fd5b506100d3610789565b6040516100e09190610ab2565b60405180910390f35b3480156100f557600080fd5b506100fe61079c565b60405161010c929190610acd565b60405180910390f35b34801561012157600080fd5b5061013c600480360381019061013791906109e3565b6107c8565b005b34801561014a57600080fd5b506101536108bc565b005b34801561016157600080fd5b5061016a6108e9565b6040516101779190610a97565b60405180910390f35b34801561018c57600080fd5b506101a760048036038101906101a291906109b6565b61090f565b6040516101b49190610af6565b60405180910390f35b3480156101c957600080fd5b506101e460048036038101906101df9190610976565b610927565b6040516101f19190610af6565b60405180910390f35b60018081111561020d5761020c610ce1565b5b600360009054906101000a900460ff16600181111561022f5761022e610ce1565b5b14610266576040517fe5c192a000000000000000000000000000000000000000000000000000000000815260040160405180910390fd5b6000600260003373ffffffffffffffffffffffffffffffffffffffff1673ffffffffffffffffffffffffffffffffffffffff16815260200190815260200160002060008060000160009054906101000a900460ff1660018111156102cd576102cc610ce1565b5b60018111156102df576102de610ce1565b5b8152602001908152602001600020549050600081101561032b576040517f808cc40900000000000000000000000000000000000000000000000000000000815260040160405180910390fd5b6000600160008060000160009054906101000a900460ff16600181111561035557610354610ce1565b5b600181111561036757610366610ce1565b5b81526020019081526020016000205482600160008060000160019054906101000a900460ff16600181111561039f5761039e610ce1565b5b60018111156103b1576103b0610ce1565b5b8152602001908152602001600020546103ca9190610ba3565b6103d49190610b72565b826103df9190610b1c565b90506000600260003373ffffffffffffffffffffffffffffffffffffffff1673ffffffffffffffffffffffffffffffffffffffff168152602001908152602001600020600080600181111561043757610436610ce1565b5b600181111561044957610448610ce1565b5b8152602001908152602001600020819055506000600260003373ffffffffffffffffffffffffffffffffffffffff1673ffffffffffffffffffffffffffffffffffffffff16815260200190815260200160002060006001808111156104b1576104b0610ce1565b5b60018111156104c3576104c2610ce1565b5b81526020019081526020016000208190555060003373ffffffffffffffffffffffffffffffffffffffff16826040516104fb90610a82565b60006040518083038185875af1925050503d8060008114610538576040519150601f19603f3d011682016040523d82523d6000602084013e61053d565b606091505b5050905080610578576040517f6ef66bc400000000000000000000000000000000000000000000000000000000815260040160405180910390fd5b813373ffffffffffffffffffffffffffffffffffffffff167f8afa837e1dad3d228f7dbcc42018b9c8b7efff9b88d3d63035963edfc75cb54660405160405180910390a3505050565b600060018111156105d5576105d4610ce1565b5b600360009054906101000a900460ff1660018111156105f7576105f6610ce1565b5b1461062e576040517ff961d63000000000000000000000000000000000000000000000000000000000815260040160405180910390fd5b6000341415610669576040517f18fd7ed900000000000000000000000000000000000000000000000000000000815260040160405180910390fd5b346001600083600181111561068157610680610ce1565b5b600181111561069357610692610ce1565b5b815260200190815260200160002060008282546106b09190610b1c565b9250508190555034600260003373ffffffffffffffffffffffffffffffffffffffff1673ffffffffffffffffffffffffffffffffffffffff168152602001908152602001600020600083600181111561070c5761070b610ce1565b5b600181111561071e5761071d610ce1565b5b8152602001908152602001600020600082825461073b9190610b1c565b92505081905550343373ffffffffffffffffffffffffffffffffffffffff167f43e08d78302cdf9c94e1ffd293c2a3696139ee41cf3199b6f5eed9c7f6cc609060405160405180910390a350565b600360009054906101000a900460ff1681565b60008060000160009054906101000a900460ff16908060000160019054906101000a900460ff16905082565b600060018111156107dc576107db610ce1565b5b600360009054906101000a900460ff1660018111156107fe576107fd610ce1565b5b14610835576040517ff961d63000000000000000000000000000000000000000000000000000000000815260040160405180910390fd5b816000800160006101000a81548160ff0219169083600181111561085c5761085b610ce1565b5b0217905550806000800160016101000a81548160ff0219169083600181111561088857610887610ce1565b5b02179055506001600360006101000a81548160ff021916908360018111156108b3576108b2610ce1565b5b02179055505050565b6001600360006101000a81548160ff021916908360018111156108e2576108e1610ce1565b5b0217905550565b600360019054906101000a900473ffffffffffffffffffffffffffffffffffffffff1681565b60016020528060005260406000206000915090505481565b6002602052816000526040600020602052806000526040600020600091509150505481565b60008135905061095b81610d40565b92915050565b60008135905061097081610d57565b92915050565b6000806040838503121561098d5761098c610d10565b5b600061099b8582860161094c565b92505060206109ac85828601610961565b9150509250929050565b6000602082840312156109cc576109cb610d10565b5b60006109da84828501610961565b91505092915050565b600080604083850312156109fa576109f9610d10565b5b6000610a0885828601610961565b9250506020610a1985828601610961565b9150509250929050565b610a2c81610bfd565b82525050565b610a3b81610c5f565b82525050565b610a4a81610c71565b82525050565b6000610a5d600083610b11565b9150610a6882610d15565b600082019050919050565b610a7c81610c55565b82525050565b6000610a8d82610a50565b9150819050919050565b6000602082019050610aac6000830184610a23565b92915050565b6000602082019050610ac76000830184610a32565b92915050565b6000604082019050610ae26000830185610a41565b610aef6020830184610a41565b9392505050565b6000602082019050610b0b6000830184610a73565b92915050565b600081905092915050565b6000610b2782610c55565b9150610b3283610c55565b9250827fffffffffffffffffffffffffffffffffffffffffffffffffffffffffffffffff03821115610b6757610b66610c83565b5b828201905092915050565b6000610b7d82610c55565b9150610b8883610c55565b925082610b9857610b97610cb2565b5b828204905092915050565b6000610bae82610c55565b9150610bb983610c55565b9250817fffffffffffffffffffffffffffffffffffffffffffffffffffffffffffffffff0483118215151615610bf257610bf1610c83565b5b828202905092915050565b6000610c0882610c35565b9050919050565b6000819050610c1d82610d18565b919050565b6000819050610c3082610d2c565b919050565b600073ffffffffffffffffffffffffffffffffffffffff82169050919050565b6000819050919050565b6000610c6a82610c0f565b9050919050565b6000610c7c82610c22565b9050919050565b7f4e487b7100000000000000000000000000000000000000000000000000000000600052601160045260246000fd5b7f4e487b7100000000000000000000000000000000000000000000000000000000600052601260045260246000fd5b7f4e487b7100000000000000000000000000000000000000000000000000000000600052602160045260246000fd5b600080fd5b50565b60028110610d2957610d28610ce1565b5b50565b60028110610d3d57610d3c610ce1565b5b50565b610d4981610bfd565b8114610d5457600080fd5b50565b60028110610d6457600080fd5b5056fea264697066735822122025aa3b8e99fce575eab985e51f2c1dc1e975d7b6410ed05586f21e6313afa37264736f6c63430008070033",
  "linkReferences": {},
  "deployedLinkReferences": {}
}